S0110000636C6F636B5F7379732E7372656349
S11300000C942A000C942E020C9447000C94470084
S11300100C9447000C9447000C9447000C94470040
S11300200C9447000C9447000C9447000C946F0107
S11300300C9447000C9447000C9447000C94470020
S11300400C9447000C9447000C9447000C94470010
S11300500C94470011241FBECFE5D8E0DEBFCDBF0E
S113006010E0A0E6B0E0ECECF8E002C005900D92E0
S1130070A637B107D9F720E0A6E7B0E001C01D928A
S1130080AC37B207E1F70E941D030C9464040C948E
S1130090000080E48BBF83E085BF8FB780688FBF8B
S11300A0089595B3946095BB882324F495B3906820
S11300B095BB03C095B39F7795BB86FF04C095B3EA
S11300C0906495BB03C095B39F7B95BB85FF04C02B
S11300D095B3906295BB03C095B39F7D95BB84FF98
S11300E004C095B3906195BB03C095B39F7E95BB47
S11300F095B3986095BBEFE9FFE03197F1F700C045
S1130100000095B3977F95BBEFE9FFE03197F1F7D6
S113011000C0000083FF04C095B3906895BB03C082
S113012095B39F7795BB82FF04C095B3906495BB4C
S113013003C095B39F7B95BB81FF04C095B39062C8
S113014095BB03C095B39F7D95BB80FF04C085B369
S1130150806185BB03C085B38F7E85BB85B3886012
S113016085BB8FE99FE00197F1F700C0000085B3DC
S1130170877F85BBEFE9FFE03197F1F700C000000E
S11301800895CF93DF93EC0103C00E9451002196A0
S113019088818111FACFDF91CF91089595B39B7F28
S11301A095BB882324F495B3906895BB03C095B39D
S11301B09F7795BB86FF04C095B3906495BB03C03D
S11301C095B39F7B95BB85FF04C095B3906295BBA7
S11301D003C095B39F7D95BB84FF04C095B3906124
S11301E095BB03C095B39F7E95BB95B3986095BBB3
S11301F0EFE9FFE03197F1F700C0000095B3977F76
S113020095BBEFE9FFE03197F1F700C0000083FFF1
S113021004C095B3906895BB03C095B39F7795BB15
S113022082FF04C095B3906495BB03C095B39F7BD4
S113023095BB81FF04C095B3906295BB03C095B391
S11302409F7D95BB80FF04C085B3806185BB03C0DF
S113025085B38F7E85BB85B3886085BB8FE99FE0BE
S11302600197F1F700C0000085B3877F85BBEFE9F4
S1130270FFE03197F1F700C00000089584B38C6F5C
S113028084BB83E00E94CE008FE79EE30197F1F7E1
S113029000C0000083E00E94CE008FE79EE3019738
S11302A0F1F700C0000083E00E94CE0082E00E94CB
S11302B0CE0088E20E94CE0081E00E94CE0086E05B
S11302C00E94CE008CE00E94CE009FEF29EF80E0D8
S11302D0915020408040E1F700C0000008951F9233
S11302E00F920FB60F9211242F933F934F935F9366
S11302F06F937F938F939F93AF93BF93EF93FF93EA
S113030080916300813049F4809177009091780066
S11303100196909378008093770080917700909174
S11303207800803D934049F480917B008F5F8093F7
S11303307B001092780010927700809176008230D2
S113034081F128F4882359F08130B9F06DC08430EC
S113035009F449C0A0F1853009F453C065C09091F7
S1130360790087E69802812D11248595859561E0B1
S113037097FD83950E94180457C08091790097E6F1
S11303808902912D11249595959587FD9395990F43
S1130390292F220F220F920F62E0891B0E9418045A
S11303A043C090917A0087E69802812D11248595A7
S11303B0859563E097FD83950E94180435C080916C
S11303C07A0097E68902912D11249595959587FDDC
S11303D09395990F292F220F220F920F64E0891B06
S11303E00E94180421C090917B0087E69802812D19
S11303F011248595859565E097FD83950E941804E1
S113040013C080917B0097E68902912D1124959564
S1130410959587FD9395990F292F220F220F920FFF
S113042066E0891B0E941804809176008F5F809398
S11304307600863011F410927600FF91EF91BF910F
S1130440AF919F918F917F916F915F914F913F9168
S11304502F910F900FBE0F901F9018951F920F921F
S11304600FB60F9211248F9380916000811102C006
S1130470109263008F5F809360008F910F900FBE86
S11304800F901F901895CF9380916000813009F0F0
S113049042C0809B0CC08099FECF809179008F5F11
S11304A08093790088318CF0109279000EC0819B82
S11304B00CC08199FECF809179008150809379009E
S11304C088231CF487E18093790080E80E94CE00A1
S11304D090917900C7E69C02812D1124859585951C
S11304E097FD8395805D0E94510081E80E94CE00B3
S11304F0809179008C02C12D1124C595C59587FD85
S1130500C395CC0F9C2F990F990FC90F8C1B805D3D
S11305100E94510086C0823009F042C0809B0CC00A
S11305208099FECF80917A008F5F80937A008C331C
S11305308CF010927A000EC0819B0CC08199FECF82
S113054080917A00815080937A0088231CF48BE395
S113055080937A0083E80E94CE0090917A00C7E6E7
S11305609C02812D11248595859597FD8395805D49
S11305700E94510084E80E94CE0080917A008C028F
S1130580C12D1124C595C59587FDC395CC0F9C2F0E
S1130590990F990FC90F8C1B805D0E94510041C0B7
S11305A0809B0CC08099FECF80917B008F5F8093ED
S11305B07B008C338CF010927B000EC0819B0CC0AE
S11305C08199FECF80917B00815080937B008823AA
S11305D01CF48BE380937B0086E80E94CE0090910C
S11305E07B00C7E69C02812D11248595859597FD96
S11305F08395805D0E94510087E80E94CE0080911F
S11306007B008C02C12D1124C595C59587FDC3952A
S1130610CC0F9C2F990F990FC90F8C1B805D0E94E2
S113062051008091600084300CF42ECF1092600051
S113063081E080936300CF9108950E943E010E945F
S1130640F3030E945B0481B3846081BB81B3826045
S113065081BB81B3816081BB0E94490082E80E9412
S1130660CE008AE30E94510085E80E94CE008AE30E
S11306700E94510080917B008C33A1F410927B0086
S113068080917A008F5F80937A008C3359F41092B2
S11306907A00809179008F5F80937900883111F41A
S11306A01092790086E80E94CE0090917B00C7E604
S11306B09C02812D11248595859597FD8395805DF8
S11306C00E94510087E80E94CE0080917B008C023A
S11306D0C12D1124C595C59587FDC395CC0F9C2FBD
S11306E0990F990FC90F8C1B805D0E945100909146
S11306F0620080917A00981749F183E80E94CE0045
S113070090917A00C7E69C02812D112485958595E8
S113071097FD8395805D0E94510084E80E94CE007D
S113072080917A008C02C12D1124C595C59587FD51
S1130730C395CC0F9C2F990F990FC90F8C1B805D0B
S11307400E94510080917A00809362009091610030
S113075080917900981749F180E80E94CE00909129
S11307607900C7E69C02812D11248595859597FD16
S11307708395805D0E94510081E80E94CE008091A3
S113078079008C02C12D1124C595C59587FDC395AB
S1130790CC0F9C2F990F990FC90F8C1B805D0E9461
S11307A051008091790080936100809163008111F0
S11307B061CF80EC0E94CE008EE690E00E94C100E2
S11307C00E94430281E08093630082EC0E94CE0089
S11307D080E20E94510080EC0E94CE0082E790E00B
S11307E00E94C10047CF87B38F6787BB8FE788BB61
S11307F08AB381608ABB8AB382608ABB8AB384600D
S11308008ABB8AB388608ABB8AB380618ABB8AB395
S113081080628ABB80E009C0E82FF0E0EC59FF4F0A
S113082020819FE7922790838F5F8A30A8F30895F1
S11308309BB39E7F9BBB9BB39D7F9BBB9BB39B7FCB
S11308409BBB9BB3977F9BBB9BB39F7E9BBB9BB385
S11308509F7D9BBB6330A1F028F4613049F0623086
S113086059F01DC06530A1F078F06630A9F017C0CA
S11308709BB391609BBB13C09BB392609BBB0FC0A7
S11308809BB394609BBB0BC09BB398609BBB07C09E
S11308909BB390619BBB03C09BB390629BBB98B31B
S11308A0907898BB98B3E82FF0E0EC59FF4F808123
S11308B0892B88BB089583E883BF89B7816089BF8A
S10F08C08FB780688FBF0895F894FFCFB5
S11308CCFFFFFF013F065B4F666D7D077F6F4F4651
S10908DC46004F4E00002F
S9030000FC
